:020000040800F2
:10000000F00A00205502000875380008A1300008E9
:100010007138000819050008694300080000000055
:10002000000000000000000000000000513C00083B
:10003000C90600080000000079380008553C000897
:100040006F0200086F0200086F0200086F020008CC
:100050006F0200086F020008CD0600086F0200085A
:100060006F0200086F0200086F0200086F020008AC
:100070006F0200086F0200086F0200086F0200089C
:100080006F0200086F0200086F0200086F0200088C
:100090006F0200086F0200086F0200086F0200087C
:1000A0006F0200086F0200086F0200086F0200086C
:1000B000153D0008213D00086F0200086F0200088E
:1000C0006F0200086F0200086F0200086F0200084C
:1000D0006F0200085D4300086F0200086F0200080D
:1000E0006F0200086F0200086F0200086F0200082C
:1000F0006F0200086F0200086F0200086F0200081C
:100100006F0200086F0200082D3D00086F02000812
:100110006F0200086F0200086F0200086F020008FB
:100120006F0200086F0200081D0500086F0200083A
:100130006F0200086F0200086F0200086F020008DB
:100140006F0200086F0200086F0200086F020008CB
:100150006F0200086F0200086F0200086F020008BB
:100160006F0200086F0200086F0200086F020008AB
:100170006F0200086F0200086F0200080000000014
:100180006F0200086F02000800F002F800F052F859
:1001900014A696E8000CB244B344DA4501D100F04D
:1001A00049F8BAE80F000FA696E83000A5EB040561
:1001B00004EB0607AAEB0704A7F101074FEA1515A0
:1001C0004FEA3414A4F10104AC4201D300F032F838
:1001D00013F0010F18BFFB1A43F0010300F001F800
:1001E000DBE71847F074000010750000103A24BFD8
:1001F00078C878C1FAD8520724BF30C830C144BF8C
:1002000004680C6070470000704700000023002461
:1002100000250026103A28BF78C1FBD8520728BF16
:1002200030C148BF0B6070471FB506F003FC1FBD0F
:1002300010B510BD00F036F91146FFF7F5FF04F0D8
:1002400061FE00F054F903B4FFF7F2FF03BC00F0C5
:100250005BF900000948804709480047FEE7FEE7D0
:10026000FEE7FEE7FEE7FEE7FEE7FEE7FEE7FEE766
:1002700004480549054A064B70470000013D000847
:1002800089010008F0040020F00A0020F006002098
:10029000F006002053EA020C00F069802DE9F04BD3
:1002A0004FF00006002B1FBFB3FA83F503FA05F4E5
:1002B00024FA05F65E4012BF1643B2FA82F502FA3E
:1002C00005F4C5F120051EBF22FA05FC44EA0C0422
:1002D000203556EA044C4FEA144418BF641C4FF012
:1002E00000084FF00009904271EB030C39D300294C
:1002F00019BFB1FA81F701FA07F6B0FA80F700FAF0
:1003000007F6C7F120071EBF20FA07FC46EA0C06D5
:100310002037B6FBF4FCA7EB0507103F07F01F0BD7
:10032000CBF120062CFA06F60CFA0BFB44BFB346C1
:100330000026202FA4BF5E464FF0000B5BEA060CA0
:1003400008BF4FF0010B19EB0B0948EB0608ABFB9C
:10035000027C06FB02CC0BFB03CCC01B71EB0C0137
:10036000C1E70B46024641464846BDE8F08B13B54F
:10037000084318BF4FF0FF300146AFF30080BDE8DF
:100380001C40704753EA020C23D010B54C1084EA8D
:10039000530404D54042C1F1000138BF491E1B423D
:1003A00004D55242C3F1000338BF5B1EFFF772FF52
:1003B00014F0804F04D04042C1F1000138BF491E03
:1003C00014F0004F04D05242C3F1000338BF5B1E4B
:1003D00010BD13B540424FF0000070EB0104B8BFF0
:1003E000012001F0004100281CBF6FF000414FF0D8
:1003F000FF30AFF300801CBD40EA010310B59B073E
:100400000FD1042A0DD310C808C9121F9C42F8D07E
:1004100020BA19BA884201D9012010BD4FF0FF302F
:1004200010BD1AB1D30703D0521C07E0002010BD45
:1004300010F8013B11F8014B1B1B07D110F8013BD1
:1004400011F8014B1B1B01D1921EF1D1184610BDB2
:100450004FF0000200B5134694469646203922BF5D
:10046000A0E80C50A0E80C50B1F12001BFF4F7AFA8
:10047000090728BFA0E80C5048BF0CC05DF804EB8A
:10048000890028BF40F8042B08BF704748BF20F8F8
:10049000022B11F0804F18BF00F8012B70477047F6
:1004A00070477047754600F02BF8AE460500694668
:1004B000534620F00700854618B020B5FFF7D8FE58
:1004C000BDE820404FF000064FF000074FF0000855
:1004D0004FF0000BAC46ACE8C009ACE8C009ACE892
:1004E000C009ACE8C00921F007018D46704710B57E
:1004F0000446AFF300802046BDE81040FFF7A3BEDE
:10050000004870476800002001491820ABBEFEE794
:100510002600020070470000FEE7000040F288203D
:10052000C2F2000000F088B910B588B040F2702423
:10053000C2F200040020A081C4E90000A06068208D
:1005400075210122234604F0B5FC2078682840F08C
:10055000B980002005F03CFB10B108B010BD00BF11
:10056000782006F0B5F9782005F08CFAC82006F05E
:100570000BF904F061F840F23001C2F2000191F988
:10058000000000284CDD002091F90320002A4FDDF7
:10059000002291F90630002B52DD00211043084360
:1005A00004F0D8F940F2531003F0F6FEC82004F02E
:1005B00029F905A802A905F07FFE07282AD101A87C
:1005C00001AC05F0EDFA94ED040A94ED051A94EDF2
:1005D000062A94ED003AB8EEC00AB8EEC11AB8EE99
:1005E000C22A23EE000A23EE011A23EE022ABDEEF0
:1005F000C00ABDEEC11ABDEEC22A05A884ED040AE8
:1006000084ED051A84ED062A04F034F90DF1020098
:1006100005F0A6FA012005F0F9FF08B010BD00BFF3
:1006200016D491F9010000281ADD0120ACE700BFC3
:1006300010D491F90420002A1ADD0822A9E700BF8E
:100640000AD491F90730002B1ADD4021A6E700BF3C
:10065000042099E720229CE74FF480719EE700BFB9
:1006600016D491F9020000281ADD02208CE700BFA1
:1006700010D491F90520002A18DD102289E700BF67
:100680000AD491F90810002916DD802186E700BF01
:10069000052079E728227CE74FF4A0717EE700BFB0
:1006A0004FF0060008BF07206EE700BF4FF0300292
:1006B00008BF38226DE700BF4FF4C07108BF4FF488
:1006C000E0716BE703F052FE70470000012000F07C
:1006D000B7BA00000022C0E90012496AC0E903224B
:1006E0000181C0E905227047D0E9001C9FED1E1A68
:1006F000496A03899FED1D2ACB1A1AB200EE102A0F
:10070000B8EEC00A20EE010A80EE020A01814AF624
:10071000AB210CFA83F2C2F6AA219FED151A52FB07
:1007200001F18B0903EBD17101EB4101A2EBC11186
:100730004260002980ED030A20EE010A9FED0D1AA8
:1007400080ED040A20EE010A80ED050A48BF01F59C
:10075000C07100EE101A9FED081AB8EE400A20EEA4
:10076000010A80ED060A70470000704285EB99414E
:100770005077D63D8FC2F53C45806F3F72B600BFC3
:10078000FEE7000070B5866D044600F03BFB94F870
:100790003510022928D105462068216C026822F014
:1007A00016020260426922F08002426109B9A16C1E
:1007B00019B1016821F008010160016821F001010F
:1007C000016000BF20680068C00715D000F01AFB68
:1007D000401B0628F6D320206065032084F83500EE
:1007E000002184F8341070BD802060650120002154
:1007F00084F8341070BD00BFE06D3F2101FA00F0B5
:10080000B060012084F835000020002184F8341005
:1008100070BD000090F83510022909D1052180F83B
:1008200035100068016821F0010101600020704767
:100830008021416501207047F0B581B00021009111
:1008400040F22C01C2F200010B68D0E9166148F2B7
:10085000B51537680822C1F64E358A403A42A3FBE7
:1008600005350CD003681C68640708D51C6824F0A3
:1008700004041C60B260426D42F001024265012234
:100880008A403A4208D003685B691B0604D5B2600F
:10089000426D42F00202426504228A403A4208D088
:1008A00003681B689B0704D5B260426D42F00402E6
:1008B000426510228A403A4219D001680B681B0732
:1008C00015D5B2600B680A685B0309D4D20509D458
:1008D0000A6822F008020A60016C29B907E000BF2B
:1008E000110341D4016C11B1044688472046C26D02
:1008F000202101FA02F33B4243D001680F68FF0652
:100900003FD5B36090F835700B68052F1CD123F0EC
:1009100016030B604B6923F080034B61036C0BB92A
:10092000836C1BB10B6823F008030B603F219140DF
:10093000B160012180F83510016D0022002980F896
:10094000342054D158E000BF0A685B0310D4D205AC
:1009500012D40A6822F010020A60012180F83510D2
:10096000002180F8341007E0816C0029BCD1BEE77B
:10097000110301D4416C00E0C16B11B104468847FA
:100980002046416DC1B3416DC9072ED0052180F8C5
:1009900035100168AA0A0B6823F001030B60009B65
:1009A0000133934200931AD80B68DB0717D0009BE2
:1009B00001339342009312D80B68DB070FD0009BE2
:1009C0000133934200930AD80B68DB0707D0009BE2
:1009D00001339342009302D80B68DB07DFD101217A
:1009E00080F83510002180F83410C16C21B101B0BD
:1009F000BDE8F040084700BF01B0F0BD2DE9F0416F
:100A0000044600F0FFF9ECB10546022084F83500F9
:100A10000020216884F83400086820F00100086094
:100A200021680868C00711D000F0ECF9401B0528C8
:100A3000F6D9032520230320636584F83550BDE8EB
:100A4000F08100BF0120BDE8F08100BF086848F2D6
:100A50003F02CFF21002D4E9013500EA020C04F1A2
:100A60000C0898E8C10143EA0C032B431843D4E96E
:100A7000072E304338431043626A40EA0E00042ACE
:100A800040EA08031CD1206BD4E90A2E40EA0E008C
:100A9000184308604869BEF1000F20F0030040EAE7
:100AA000020040F0040C11D0B8F5005F36D0B8F168
:100AB000000F45D1022A46D0012A3BD032B942E08C
:100AC0000B60486920F0070040EA020C01F0F800D2
:100AD0004AF6AB221038CAF6AA22A0FB02231A0952
:100AE00046F68423C1F814C0C0F600039A5C40F2B5
:100AF000FF335F284FF03F0021EA030100FA02F0C4
:100B000088BF0431C4E91612886000230125002043
:100B1000636584F83550BDE8F08100BF032AD5D85D
:100B2000012540230120DFE802F0030E030500BF8A
:100B300082E700BFAEF1C070B0FA80F0400904E077
:100B4000032A04D3C2D1CEF300600028BED0012511
:100B500040230120636584F83550BDE8F081000032
:100B600090F834C0BCF1010F04BF0220704770B58B
:100B70004FF0010C80F834C0D0F858E090F835C040
:100B8000BCF1010F38D14FF0020C80F835C04FF0A6
:100B9000000CC0F854C0D0F800C08468056CC06D6B
:100BA000DCF80060402C26F48026CCF80060CCF8FD
:100BB00004300B4604BF13460A463F2101FA00F0F9
:100BC000CCF80830CCF80C20CEF80800DCF8000097
:100BD00040F01600CCF800002DB1DCF8000040F029
:100BE0000800CCF80000DCF8000040F00100CCF870
:100BF0000000002070BD00BF002180F834100220EA
:100C000070BD0000B0B5044600F0FCF8054640F2A7
:100C10002400C2F200000078611C18BF044400BF29
:100C200000F0F0F8401BA042FAD3B0BD012818BF75
:100C3000704740F25410C2F2000001210170704769
:100C400043F61441C4F201010A68024214BF08606D
:100C50007047FFF7EBBF00002DE9F04F83B000F1C4
:100C6000200200F13E4741F60045009207F1FF7770
:100C7000C4F2020508224FEAB726A84208BF07229D
:100C800000254FF000084FF00009072E38BF4FEA4B
:100C9000B72201920AE000BF09F1010908F1020838
:100CA000B9F1100F05F1040500F0A2800F680122D0
:100CB00002FA09FE17EA0E0AEED0D1F804C00322A8
:100CC0000CF003077E1E02FA08F4012E6FEA040BF3
:100CD00012D88468CE6804EA0B0406FA08F6344396
:100CE0008460446824EA0E06CCF3001404FA09F484
:100CF0002643466004E000BF032F01D103271EE016
:100D0000C6688C6806EA0B0604FA08F42643022F2C
:100D1000C66014D16FF00302009E02EA590756F82C
:100D200007C005F01C040F220B69A2402CEA020246
:100D3000A3401A43F251D1F804C00CF00307026833
:100D400007FA08F302EA0B021A431CF4403F026060
:100D5000A2D0002243F644030292C4F202031A68AE
:100D600043F6004442F480421A601A68C4F2010457
:100D700002F480420292029A29F003024FF6084CD4
:100D80002244CFF6FF7C52F80C3005F00C070F26FA
:100D9000BE40B343019E06FA07F73B4342F80C30CE
:100DA000A2684B6842EA0A0743F60C4CDE0258BFC1
:100DB00022EA0A07A760C4F2010CDCF800209E02B8
:100DC00042EA0A0758BF22EA0A07CCF800706268B4
:100DD0009E0342EA0A0758BF22EA0A0767602268B0
:100DE000DB0342EA0A0758BF22EA0A07276053E7F3
:100DF00003B0BDE8F08F0000002A08BF090481613C
:100E00007047000040F2EC40C2F2000000687047FA
:100E1000002804BF01207047F0B581B0044690F867
:100E20003D0028B9002084F83C00204600F07CFA00
:100E3000242084F83D002068016821F00101016050
:100E4000016841F400410160016821F40041016042
:100E500000F00EFC636848F2A16CC0F2010C40F691
:100E60000011C0F23D0163453CBF48F28041C0F231
:100E70001E01884202D2012001B0F0BD4DF683610F
:100E8000C4F21B31A0FB01122168970CD1F804E0D9
:100E90004FF496762EF03F0545EA92454D60774334
:100EA00048F638160D6AC0F24106A7FB067625F013
:100EB0003F07634538BF960C721C3A430A62CA6901
:100EC00048F2A0664CF6FF77C0F20106B34222EA70
:100ED00007020BD801385B00B0FBF3F001306FF371
:100EE0001F30042898BF04201BE000BFA76801380A
:100EF00057B119277B43B0FBF3F001306FF31F307C
:100F000070B100F5804007E003EB4303B0FBF3F062
:100F100001306FF31F3018B100F5004001E000BF51
:100F200001201043C8610868D4E9072320F0C000FD
:100F3000104318430860886848F2FF3204F10C0738
:100F400090438CCF18431043A6698860C86820F08E
:100F5000FF0038433043C860086840F00100086073
:100F600000202021206484F83D10206384F83E0096
:100F700001B0F0BD2DE9F04784B0994616460F4602
:100F80000446FFF73FFF94F83D10202927D105467E
:100F9000206800BF816989071CD5FFF733FF411B1B
:100FA00020681A29F6D381698907F3D5002020210A
:100FB000206384F83D1084F83E00206C04F13C0A64
:100FC00040F020002064022000218AF8001004B0C4
:100FD000BDE8F087A2461AF83C1F012904D102207F
:100FE00004B0BDE8F08700BF01228AF80020036842
:100FF000DDE90D180C9ADB0703D1036843F0010308
:101000000360036823F400630360222084F83D003A
:10101000402084F83E000020206462626185608D7B
:10102000394620850020CFF6FF70E0622046324628
:101030004B46CDE9008502F035F818B1012004B027
:10104000BDE8F087208D08B3022813D0012835D1E0
:1010500021680A6822F480620A60002203924A69C9
:1010600003928A690392039A0A6842F400720A6042
:101070002CE000BF21680A6822F480620A600A68D6
:1010800042F400620A60002203921AE000200390FA
:10109000206841690391816903910399016841F4D2
:1010A00000710160202084F83D00002084F83E009B
:1010B00000218AF8001004B0BDE8F08700210391F8
:1010C00021684A6903928969039103990427C0F250
:1010D00001070CE010690870606A218D01306062C0
:1010E000481E2085618D013961850104DAD080B206
:1010F00003280FD802284AD001282DD12046414686
:101100002A4602F06DFA002898D12068616A0069C9
:10111000E1E700BF204641462A4602F061FA002876
:101120007FF48CAF2068616A00690870606A226889
:10113000411C208D616201382085638D013B6385F0
:1011400053695B07D1D580B20328C3D1106820F45E
:1011500080601060BEE700BF20463946002243464B
:10116000009502F0EBF800287FF468AF2068616A10
:10117000026822F48062026000690870606A218D52
:1011800001306062481E2085608D013860852046F0
:10119000394600224346009502F0D0F800287FF43B
:1011A0004DAF2068616A026842F400720260006913
:1011B0000870606A2268411C6162218D01392185B5
:1011C000618D013961851169417085E72DE9F04331
:1011D00083B0994616460F460446FFF713FE94F86F
:1011E0003D10202924D10546206800BF8169890768
:1011F0001AD5FFF707FE411B20681A29F6D381692B
:101200008907F3D500202021206384F83D1084F85D
:101210003E00216C41F02001216484F83C00022052
:1012200003B0BDE8F08300BF94F83C10012903D15E
:10123000022003B0BDE8F083012284F83C2003685B
:10124000DDE90B180A9ADB0703D1036843F00103B9
:101250000360036823F400630360212084F83D00E9
:10126000402084F83E000020206462626185608D29
:10127000394620850020CFF6FF70E06220463246D6
:101280004B46CDE9008501F097FF18B1012003B06E
:10129000BDE8F083208D98B9204641462A4601F0EA
:1012A000EFFF88B3206C0428F0D12068016841F476
:1012B00000710160012003B0BDE8F0830004EBD0B1
:1012C000204641462A4602F0D3F90028EAD1616A55
:1012D0002268084610F8013B1361238D6062581E96
:1012E0002085678D013F678557697F07E6D507042D
:1012F000E4D048781061881C6062981E2085618D5A
:1013000001396185DAE700BF2068016841F40071A6
:101310000160202084F83D00002084F83E0084F81D
:101320003C0003B0BDE8F083B0B586B045F20041A3
:101330000068C4F20001002488420594CDE903440A
:101340000294019402D006B0B0BD00BF43F6300550
:101350000094C4F20205286840F002002860286862
:1013600000F0020000900098C02001901220CDE90A
:101370000204032004900420059001F5D83001A94F
:10138000FFF76AFC0094286940F40010286128697E
:1013900000F400100090009806B0B0BD40F22400A8
:1013A00040F2EC41C2F20000C2F2000100780A688B
:1013B000104408607047000080B543F60040C4F256
:1013C0000200016841F400710160016841F480612C
:1013D0000160016841F480710160032000F086F82B
:1013E0000F2000F005F800F027F8002080BD000075
:1013F00070B540F22406C2F2000640F22C013278A9
:10140000C2F200014FF47A730968B3FBF2F20446AA
:10141000B1FBF2F1084600F061FB0F2C4FF0010523
:1014200008D838B94FF0FF3021460022002500F0DF
:1014300031F87460284670BD82B0002043F6400148
:101440000190C4F202014A6842F480424A604A684C
:1014500002F480420192019A0090086840F08050A6
:101460000860086800F080500090009802B0704753
:10147000002848BF704700F01F01012202FA01F165
:101480001C2202EAD0004EF20012CEF2000281507D
:101490007047000010B54EF60C5CCEF2000CDCF884
:1014A0000030C3F3022E8EF00704042C28BF04245E
:1014B000BEF103034FF0FF3E0EFA04F438BF0023E1
:1014C000A14399400EFA03F39A43114300F00F022F
:1014D00000F160430901043A03F5644362440028C3
:1014E00048BF02F10C03197010BD00004EF60C51FC
:1014F000CEF200010A684FF6FF031A4060F30A2299
:1015000042F0806040F0FD7008607047002804BF22
:10151000012070472DE9F04143F60808C4F20208A3
:101520000446D8F8F8030D4600F00700814207D9B9
:1015300088F8F853D8F8F80300F00700A84277D1EC
:101540002068810717D5410705D5D8F8001041F468
:10155000E051C8F80010010705D5D8F8001041F493
:101560006041C8F80010D8F80010A26821F0F0011E
:101570001143C8F80010C00740D1D8F8F80300F0B4
:101580000700854207D288F8F853D8F8F80300F02E
:101590000700A8424CD12068410707D5D8F80010B1
:1015A000E26821F4E0511143C8F80010000708D5A3
:1015B000D8F80000216920F4604040EAC100C8F872
:1015C000000000F07DF8D8F8001046F65422C1F370
:1015D0000311C0F60002515C40F22C0220FA01F126
:1015E00040F22800C2F200000068C2F2000211605E
:1015F000FFF7FEFE0020BDE8F08100BF6068811E9D
:10160000022907D258F8081C89015CBF0120BDE8F7
:10161000F08111E0012807D158F8081C89035CBF4C
:101620000120BDE8F08107E058F8081C890703D4C1
:101630000120BDE8F08100BFD8F8001021F00301BF
:101640000843C8F80000FFF7DDFB064641F2883783
:10165000D8F80000616800F00C00B0EB810F8CD06E
:10166000FFF7D0FB801BB842F2D90320BDE8F08120
:1016700040F22C0043F60801C2F20000C4F202015D
:101680000068096846F66422C1F38221C0F60002B0
:10169000515CC8407047000040F22C0043F608013E
:1016A000C2F20000C4F202010068096846F6642232
:1016B000C1F34231C0F60002515CC84070470000DF
:1016C00010B543F60404C4F202046168C1F3810159
:1016D00042F20040C0F2F400DFE801F002040A0226
:1016E00010BD00BF41F20020C0F27A0010BD00BF63
:1016F000216801F03F02216823684902C3F3881181
:1017000006D4A1FB00010023FEF7C4FD07E000BFE3
:1017100041F20020C0F27A004843B0FBF2F02168A9
:101720000222C1F3014102EB4101B0FBF1F010BD17
:10173000002804BF012070472DE9F04182B0044623
:10174000007843F60006C007C4F202060CD0B06869
:1017500000F00C00042840F081803068800303D53D
:101760006068002800F06881207880071BD5B06889
:1017700010F00C0F09D0B06800F00C00082840F001
:1017800087807068400200F183803068800703D54D
:10179000E068012840F050813068216920F0F800AD
:1017A00040EAC10030602078000713D42078400759
:1017B0002AD4A569002D00F03A81B06800F00C0031
:1017C000082840F0A580012D40F00E81012002B0D4
:1017D000BDE8F0816069002800F082800020C4F23A
:1017E00047200121C0F8801EFFF70CFB054600BF13
:1017F000706F8007DAD4FFF705FB401B0228F7D98A
:10180000032002B0BDE8F081306C5FEAC0080AD462
:1018100000200190306C40F080503064306C00F05B
:1018200080500190019847F20007C4F20007386821
:10183000C00547D4386840F480703860FFF7E2FA9A
:10184000054600BF3868C0053CD4FFF7DBFA401BF3
:101850000228F7D9032002B0BDE8F081B06800F09B
:101860000C00082803D1706840023FF576AF61682C
:101870003068B1F5803F07D0B1F5A02F40F09A80D5
:1018800040F480203060306840F4803030609AE06E
:10189000E068002840F20000C4F247205CD001213B
:1018A0000160FFF7AFFA0546306880073FF574AF77
:1018B000FFF7A8FA401B0228F6D9032002B0BDE8C2
:1018C000F08100BFA168306F012905D0052955D1ED
:1018D00040F004003067306F40F00100306756E0A0
:1018E0000020C4F247200021C0F8801EFFF78AFACA
:1018F000054600BF706F80077FF558AFFFF782FA8B
:10190000401B0228F6D9032002B0BDE8F08100BFD9
:101910000027C4F2472700203866FFF773FA022D2C
:1019200005460DD13068800140F18A80FFF76AFAE0
:10193000401B02284FF00300F4D902B0BDE8F0814B
:101940003068800173D5FFF75DFA401B02284FF025
:101950000300F5D9F1E700BF00210160FFF752FA5B
:10196000054600BF306880077FF51DAFFFF74AFAD4
:10197000401B02284FF00300F4D9DEE720F00100FD
:101980003067306F002920F0040030677AD0FFF70D
:1019900039FA054641F28837306F800700F18480BC
:1019A000FFF730FA401BB842F6D9032002B0BDE879
:1019B000F08100BF20F4803030603068002920F4CE
:1019C000802030607AD0FFF71DFA0546306880032A
:1019D0003FF5CAAEFFF716FA401B6428F6D903207C
:1019E00002B0BDE8F08100BF7068E16900F48002D8
:1019F0008A4221D1216A00F03F028A421CD147F677
:101A0000C071626A0140B1EB821F15D1A16A4FF625
:101A1000FF73C903994300F44032A1F580318A4233
:101A20000AD1E16A00F07060B0EB016F04D10020D0
:101A300002B0BDE8F08100BF012002B0BDE8F08136
:101A400004F11C052FCD084340EA8210D9034FF65C
:101A5000FF729143A1F5803140EA05600843706050
:101A600001203866FFF7CEF9044600BF30688001D8
:101A7000DDD4FFF7C7F9001B02284FF00300F5D9AA
:101A80005BE700BFFFF7BEF9054641F2883700BFAC
:101A9000306F800708D5FFF7B5F9401BB8424FF00B
:101AA0000300F5D949E700BFB8F1000F3FF581AE5B
:101AB000306C20F0805030647BE600BFFFF7A2F965
:101AC000054600BF306880037FF54EAEFFF79AF9F8
:101AD000401B64284FF00300F4D92EE7411E00207C
:101AE000B0EB116F1CBF012070474EF21002CEF216
:101AF000000251604EF62351CEF20001F0230B702C
:101B00000721906011607047704700007047000027
:101B100090F83C20012A04BF02207047B0B501F1C3
:101B200008053CCDD1E900CE23F47C5322F4705259
:101B30001A432EF4F0431A432CF4E0431A4324F4DE
:101B4000C0431A432A43C96922F4804203681143FF
:101B50005964002180F83C100020B0BD90F83C2072
:101B6000012A4FF0020254D010B580F83D200268DF
:101B7000D2F804E0D2F808C00C682EF070032343BA
:101B800041F2FF74C4F20004A24253600EDC40F242
:101B9000FF73C4F200039A4216DCB2F1804F2BD0DF
:101BA00040F20043C4F2000324E000BF40F2FF33E0
:101BB000C4F201039A4213DC41F60003C4F20003AD
:101BC0009A4219D0002313E040F60003C4F2000348
:101BD0009A4211D040F60043C4F200030AE000BF6D
:101BE00044F20003C4F201039A4205D040F20043DC
:101BF000C4F201039A4204D149682CF080031943CE
:101C000091600121002280F83D1080F83C20BDE861
:101C10001040104670470000002804BF01207047A4
:101C200010B5044690F83D0028B9002084F83C0027
:101C3000204600F01FF8022084F83D002068211D96
:101C400002F07AF8012084F8460084F83E0084F817
:101C50003F0084F8400084F8410084F8420084F892
:101C6000430084F8440084F8450084F83D000020D7
:101C700010BD0000006840F60041C4F20001884237
:101C800018BF704780B582B00020019043F6400035
:101C9000C4F202000168002241F0080101600068FE
:101CA000002100F00800019001983220FFF7F2FBBC
:101CB000322002B0BDE88040FFF7DABB90F83D105B
:101CC00001291CBF01207047022180F83D100068E7
:101CD00041F2FF72C168C4F20002904241F001017A
:101CE000C1600DDC40F2FF71C4F20001884215DCD6
:101CF000B0F1804F2AD040F20041C4F2000123E04D
:101D000040F2FF31C4F20101884213DC41F60001C8
:101D1000C4F20001884219D0002113E040F600010E
:101D2000C4F20001884211D040F60041C4F2000123
:101D30000AE000BF44F20001C4F20101884205D06C
:101D400040F20041C4F20101884206D1816801F0ED
:101D50000701062904BF00207047016841F0010116
:101D6000016000207047000090F83C20012A4FF0ED
:101D700002026CD080B580F83D20D0F800C04FF64C
:101D80007772DCF8083023EA0202CCF808200B68EE
:101D90004F2B29DC1F2B45DD202B46D0302B44D088
:101DA000402B40F0AF80D1F804E0C968DCF8203067
:101DB000DCF8202022F00102CCF82020DCF81820EA
:101DC00022F0F00242EA011123F00A0242EA0E0276
:101DD000CCF81810CCF82020DCF8081041F04701AE
:101DE00021F0300128E000BF6F2B33DDB3F5005F39
:101DF00074D0B3F5805F21D0702B40F08380D1E99F
:101E000001E3C968DCF8082043EA0E0322F47F42AC
:101E100043EA01211143CCF80810DCF8081041F026
:101E2000770109E00BB1102B6CD1DCF8081021F020
:101E30007001194341F00701CCF80810002201217C
:101E400080F83D10002180F83C10BDE8804010462D
:101E5000704700BF502B21D0602B53D1D1F804E044
:101E6000C968DCF82030DCF8202022F01002CCF821
:101E70002020DCF8182022F4704242EA013123F0DD
:101E8000A00242EA0E12CCF81810CCF82020DCF8A0
:101E9000081041F0670121F01001CDE7D1F804E00E
:101EA000C968DCF82030DCF8202022F00102CCF8F0
:101EB0002020DCF8182022F0F00242EA011123F081
:101EC0000A0242EA0E02CCF81810CCF82020DCF806
:101ED000081041F0570121F02001ADE7D1E901E3FD
:101EE000C968DCF8082043EA0E0322F47F4243EA83
:101EF00001211143CCF80810DCF8081041F48041AE
:101F00009AE700BF01229AE7002804BF012070472A
:101F10002DE9F047044690F83D000D4628B9002011
:101F200084F83C00204600F049F8022084F83D0087
:101F3000206844F20702816891438160211D01F00D
:101F4000FBFE20684FF6FF7881688269D0F820C0D8
:101F5000D5E9003ED5E9026A43EA0109AB6922EA04
:101F6000080246EA03234FF6FC46B343D5E9076768
:101F700042EA0A0229691A4342EA062242EA0111A8
:101F80002CF0AA026B6942EA0E0241EA073142EAEA
:101F90000312C0F8089081610262012084F84600B3
:101FA00084F83E0084F83F0084F8420084F843003F
:101FB00084F83D000020BDE8F087000010B586B031
:101FC000006840F20042C4F2000200219042CDE9D4
:101FD0000411CDE90211019120D0B0F1804F4DD113
:101FE000002043F630010090C4F202010A691C246B
:101FF00042F001020A610A6902F001020092009AAD
:102000000090086840F0010008600868032100F0B3
:1020100001000090009801201BE000BF43F6300053
:102020000091C4F2020002691D2442F00202026122
:10203000026902F002020092009A0091016841F0E8
:10204000010101600068C02100F0010000900098CB
:102050000220019102210291002105900020CDE98A
:102060000311C4F2020001A9FEF7F6FD204600218B
:102070000022FFF70FFA2046FFF7FAF906B010BD6D
:1020800080B590F83E2090F83F3090F842E090F80C
:1020900043C004290AD0F9B9012A4FF0010208BF50
:1020A000BEF1010F46D0104680BD00BF012B4FF09E
:1020B000010208BFBCF1010FF5D1022180F83F10E9
:1020C00080F843100068016A21F010010162016A82
:1020D00041F0100101622AE0012A4FF0010208BF1D
:1020E000012BE0D1BEF1010FDDD1BCF1010FDAD13E
:1020F000022280F83E2080F83F2080F8422080F8BD
:102100004320E1B10068016A21F001010162016A26
:1021100041F001010162016A21F010010162016ACE
:1021200041F010010162C16841F00201C160042167
:102130000FE000BF022180F83E1080F842100068D6
:10214000016A21F001010162016A41F001010162AD
:102150000221C2681143C1600168002241F00101FF
:102160000160104680BD00007047000070B5044655
:102170000068C5680669B10716D515F0020113D0CD
:102180006FF002010161012121778069800703D08E
:102190002046FFF7E9FF05E0204600F0DFF8204683
:1021A00000F04EFA00202077700719D515F00400D2
:1021B00016D020686FF00401016102212177806947
:1021C00010F4407F04D02046FFF7CEFF06E000BFAA
:1021D000204600F0C3F8204600F032FA00202077B5
:1021E000300717D515F0080014D020686FF00801EB
:1021F000016104212177C069800703D02046FFF7E1
:10220000B3FF05E0204600F0A9F8204600F018FAD8
:1022100000202077F00619D515F0100016D02068A0
:102220006FF01001016108212177C06910F4407F2F
:1022300004D02046FFF798FF06E000BF204600F0DC
:102240008DF8204600F0FCF900202077F00718BF39
:1022500015F0010002D1300609D412E020686FF0B9
:1022600001010161204600F075FA300609D515F02C
:10227000800006D020686FF0800101612046FFF7E2
:1022800043FC700609D515F0400006D020686FF0B9
:1022900040010161204600F06DFAB00658BF70BDE4
:1022A00015F0200008D021686FF0200220460A6156
:1022B000BDE87040FFF72ABC70BD000080B586B055
:1022C000006840F20042C4F2010200219042CDE9D0
:1022D0000411CDE9021101911ED040F60001C4F2B3
:1022E0000001884237D10020009043F63000C4F24C
:1022F000020001684FF4404241F0080101600068AB
:10230000022100F008000090009840F60000C4F29E
:10231000020000F5806014E043F630000091C4F242
:10232000020001684FF4407241F00401016000684E
:10233000032100F004000090009840F60000C4F271
:1023400002000192022202920022059101A9CDE928
:102350000322FEF781FC06B080BD0000704700003C
:1023600090F83C30012B04BF022070474FEAB202C4
:10237000032A00F2FF802DE9F043DFE802F003B109
:102380003F7F00BF036840F200461C6A1A6A24F0CF
:10239000020422F001021A621A46D3F804C052F86D
:1023A00018EF8F6843F48065C4F20106B54244EA31
:1023B000070405D1CF6824F00C0427F004073C4340
:1023C0000F68B54206D1D1E905582CF440762E436A
:1023D00046EA080C2EF073063743C3F804C09F6129
:1023E0004F6809695F631C629F6947F008079F6136
:1023F0009F6927F004079F61B1E000BF036840F2C6
:1024000000481C6A1A6A24F4007422F480721A626A
:102410001A46D3F804C052F81CEF8F6843F4806565
:10242000C4F20108454544EA072408D1CF6840F2C8
:10243000FF463F0224F4406427EA06063443D1F8FD
:102440000090454506D1D1E905562CF440572E435E
:1024500047EA061C2EF0730747EA0907C3F804C0D1
:10246000DF614F680969DF631C62DF6947F00807B5
:10247000DF61DF6927F00407DF6170E0036840F285
:102480000045D3F820C01A6A43F4806722F48052D2
:102490001A621A465C6852F81C8FD1F800E08E6808
:1024A000C4F20105AF4204D14D6924F4804444EAEA
:1024B00085142CF4005747EA063728F4E64646EA26
:1024C0000E265C60DE614E6809691E641F62DF696A
:1024D00047F40067DF61DF6927F48067DF613DE073
:1024E000036840F200481C6A1A6A24F0200422F0B3
:1024F00010021A621A46D3F804C052F818EF8F6817
:1025000043F48065C4F20108454544EA071407D145
:10251000CF686FF0400624F0C00406EA0716344383
:10252000D1F80090454506D1D1E905562CF4406715
:102530002E4347EA860C2EF4E64747EA0927C3F8FC
:1025400004C09F614F6809699F631C629F6947F4DB
:1025500000679F619F6927F480679F610902136884
:10256000194311600021BDE8F043002280F83C20AF
:10257000084670470121002280F83C200846704739
:10258000002804BF0120704710B5044690F83D00B4
:1025900028B9002084F83C00204600F01FF80220F3
:1025A00084F83D002068211D01F0C6FB012084F85D
:1025B000460084F83E0084F83F0084F8400084F828
:1025C000410084F8420084F8430084F8440084F811
:1025D000450084F83D00002010BD000082B0006876
:1025E00040F20041C4F20101884217D040F60001D8
:1025F000C4F20001884220D10020019043F640003F
:10260000C4F20200016841F004010160006800F0BA
:1026100004000190019802B0704700BF00200090B4
:1026200043F64000C4F20200416841F002014160FB
:10263000406800F002000090009802B0704700006F
:1026400070470000C1B1042908D0082914BF4122F5
:102650004022825C012A05D016E000BF3F22825C46
:10266000012A11D10222082910D0042914BF80F8B0
:10267000412080F83F200BE090F83E20012A03D152
:10268000022280F83E2003E00120704780F84020BD
:10269000006801F01F010122036A02FA01F123EA36
:1026A00001020262026A114341F2FF72C4F20002A7
:1026B000904201620CDC40F2FF71C4F200018842DA
:1026C00014DCB0F1804F37D040F2004116E000BF7B
:1026D00040F2FF31C4F20101884215DC41F60001ED
:1026E000C4F20001884227D0002115E040F6000125
:1026F000C4F2000188421FD040F60041C4F200013C
:10270000884219D01FE000BF44F20001C4F2010169
:10271000884211D040F20041C4F20101884212D136
:10272000416C40F2004340F48062C4F2010341F482
:1027300000419A42416406D1816801F007010629EF
:1027400004BF00207047016841F0010101600020D2
:1027500070470000006840F60041C4F20001884262
:1027600018BF704740F25410C2F2000001214170BE
:10277000704700007047000070B582B090F842507A
:10278000202D0BD113460A460146002A4FF00100C6
:1027900018BF002B06D102B070BD00BF022002B0EE
:1027A00070BD00BF0863002622204E638A628B85BD
:1027B0004E6481F842000C680D46C86B43F6FD7C00
:1027C00044F25D11C0F6000CC0F60001C0E90FC173
:1027D00043F68161C0F60001C0E91316211DFEF722
:1027E000BFF9E8B3102068642020294685F842002C
:1027F00001200A6B012A40F0B380002200920A688F
:102800001368009352680092009A00BF0A6852E869
:10281000032F0B6842F0100243E80326002EBAD0C3
:102820000A6852E8032F0B6842F0100243E80326BF
:10283000002EB0D00A6852E8032F0B6842F0100255
:1028400043E80326002EA6D00A6852E8032F0B683F
:1028500042F0100243E80326002ED7D19BE700BFC9
:102860000196286829460268019240680190019803
:10287000286928B3086850E8030F0A6840F480709C
:1028800042E80303E3B1086850E8030F0A6840F424
:10289000807042E803039BB1086850E8030F0A68A0
:1028A00040F4807042E8030353B1086850E8030F16
:1028B0000A6840F4807042E80303002BDAD100BFBD
:1028C000086850E8050F0A6840F0010042E8050377
:1028D000BBB3086850E8050F0A6840F0010042E801
:1028E000050373B3086850E8050F0A6840F001005B
:1028F00042E805032BB3086850E8050F0A6840F06A
:10290000010042E80503002BDAD11AE0086850E81C
:10291000050F0A6840F0400042E80503DBB1086893
:1029200050E8050F0A6840F0400042E8050393B103
:10293000086850E8050F0A6840F0400042E80503C7
:102940004BB1086850E8050F0A6840F0400042E8C3
:102950000503002BDAD100200A6B012A3FF44DAFAA
:10296000012002B070BD0000006841F20001C4F215
:102970000101884218BF704710B540F2F814C2F246
:10298000000440F2A44004F13401C2F200000A2223
:10299000FFF7F2FE40F28820C2F2000000680168F2
:1029A00021F00801016094F8341040F25410C2F292
:1029B0000000AA294FF00101C17009D194F83D101F
:1029C0000D2905D1D4F83510D4F83920C1604267FB
:1029D000BDE810407047000070470000B0B582B0FD
:1029E00001680A68CC684B6902F02F05202D04F0BD
:1029F000200505D125B102B0BDE8B04001F0BABB59
:102A00005FEA027C1EBF03F0010E04F4907313EB27
:102A10000E0341D1036BD50618D5012B16D114F046
:102A2000100313D0002201920A6801924A680192B1
:102A3000019A496949064BD4818DC28DC38D002B03
:102A400018BF914240F0068202B0B0BD13062DD5EA
:102A500014F080032AD090F84120212AF4D1826812
:102A6000B2F5805F03D10269002A00F07982026A20
:102A7000531C036212784A60C28C013A1304C28468
:102A8000E2D1C86820F08000C860C86840F040000B
:102A9000C86002B0B0BD00BFD30718BF14F4807384
:102AA00040F0E280530700F1E580EAE05206CBD522
:102AB00014F04002C8D0CA6822F04002CA60202147
:102AC00080F8411002B0BDE8B04000F0E7BA00BFA6
:102AD000C26B11684B68858D99B2002900F0B480F3
:102AE000A94280F0B180C385D169B1F5807F00F043
:102AF000A080016851E8031F026821F4807142E858
:102B00000313DBB1016851E8031F026821F48071EF
:102B100042E8031393B1016851E8031F026821F4EE
:102B2000807142E803134BB1016851E8031F02684A
:102B300021F4807142E80313002BDAD1016851E8D7
:102B4000051F026821F0010142E80513BBB30168CB
:102B500051E8051F026821F0010142E8051373B333
:102B6000016851E8051F026821F0010142E80513E0
:102B70002BB3016851E8051F026821F0010142E80A
:102B80000513002BDAD11AE0016851E8051F02682D
:102B900021F0400142E80513DBB1016851E8051F4F
:102BA000026821F0400142E8051393B1016851E841
:102BB000051F026821F0400142E805134BB101688E
:102BC00051E8051F026821F0400142E80513002B7F
:102BD000DAD1202180F8421000210163016851E818
:102BE000031F026821F0100142E80313DBB1016802
:102BF00051E8031F026821F0100142E8031393B16A
:102C0000016851E8031F026821F0100142E8031334
:102C10004BB1016851E8031F026821F0100142E83E
:102C20000313002BDAD1C16B04460846FDF7AAFD59
:102C3000204602214163818DC28D891A89B202B07A
:102C4000BDE8B040FFF790BE8D427FF4FDAED26983
:102C5000B2F5807F7FF4F8AE0222426302B0BDE895
:102C6000B040FFF781BE00BF436C43F001034364F3
:102C7000530706D5BEF1000F03D0436C43F00203A7
:102C80004364930706D5BEF1000F03D0436C43F0B5
:102C900004034364BCF1000F06D55EEA050303D0CC
:102CA000436C43F008034364436C002B3FF4CCAE09
:102CB000920605D525B1044601F05CFA216820464C
:102CC0004969426C01F0400102F00802891800F0E5
:102CD000B98000BF016851E8031F026821F49071B8
:102CE00042E80313BBB3016851E8031F026821F4F3
:102CF000907142E8031373B3016851E8031F02683F
:102D000021F4907142E803132BB3016851E8031FCB
:102D1000026821F4907142E80313002BDAD11AE023
:102D2000016851E8051F026821F0010142E805131E
:102D3000DBB1016851E8051F026821F0010142E89A
:102D4000051393B1016851E8051F026821F00101E4
:102D500042E805134BB1016851E8051F026821F0F4
:102D6000010142E80513002BDAD1016B012924D1BE
:102D7000016851E8031F026821F0100142E80313C3
:102D8000DBB1016851E8031F026821F0100142E83D
:102D9000031393B1016851E8031F026821F0100189
:102DA00042E803134BB1016851E8031F026821F0A8
:102DB000100142E80313002BDAD1202180F84210E1
:102DC0000021016301684969490640F1C380016837
:102DD00051E8051F026821F0400142E80513DBB10C
:102DE000016851E8051F026821F0400142E805131F
:102DF00093B1016851E8051F026821F0400142E8E3
:102E000005134BB1016851E8051F026821F040012C
:102E100042E80513002BDAD1C16B002900F09A803B
:102E200043F67562C0F60002044608460A65FDF7DF
:102E3000F1FC00283FF408AEE06B016D02B0BDE884
:102E4000B04008470446FFF7C7FD0020606402B0A9
:102E5000B0BD00BF891A00BF026852E8032F0368A3
:102E600022F4907243E80325BDB3026852E8032FB1
:102E7000036822F4907243E8032575B3026852E8B0
:102E8000032F036822F4907243E803252DB30268F0
:102E900052E8032F036822F4907243E80325002DC3
:102EA000DAD11AE0026852E8052F036822F0010225
:102EB00043E80525DDB1026852E8052F036822F0DA
:102EC000010243E8052595B1026852E8052F036821
:102ED00022F0010243E805254DB1026852E8052FB2
:102EE000036822F0010243E80525002DDAD12022F3
:102EF00080F8422000220263026852E8032F036830
:102F000022F0100243E80325DDB1026852E8032FE6
:102F1000036822F0100243E8032595B1026852E8E5
:102F2000032F036822F0100243E803254DB1026825
:102F300052E8032F036822F0100243E80325002D16
:102F4000DAD1022289B2426302B0BDE8B040FFF795
:102F50000BBD00BF02B0BDE8B040FFF73DBD00BFF4
:102F6000026A32F8023B6FF35F234B60026283E533
:102F7000002804BF0120704710B5044690F84100B6
:102F800028B9002084F84000204600F021F82420D1
:102F900084F841002068C16821F40051C1602046D6
:102FA00001F068F92068016921F4904101614169EB
:102FB00021F02A014161C16841F40051C160002043
:102FC0002021606484F8411084F84210606310BDD1
:102FD00070B586B0044641F200002168C4F20100D9
:102FE000002681420596CDE903660296019601D03E
:102FF00006B070BD43F630010096C4F202014A6982
:1030000000F5704042F010024A614A6902F0100275
:103010000092009A00960A6842F001020A6009686C
:1030200001F00101009100994FF4C061019102216A
:10303000CDE90216032104910721059101A9FDF7AD
:103040000BFE40F2882546F24040C2F20005C4F271
:1030500002004FF000614FF4806285E8430028468B
:10306000C5E90362C5E90566C5E907666E62FDF755
:10307000C5FC002818BFFDF781FB25200021002298
:10308000E563AC63FEF706FA2520FEF7F1F906B01A
:1030900070BD0000704700007047000070470000DE
:1030A000FEE700002DE9F04782B0044600689A462A
:1030B0000B9D0A9E0368914643F480620260026899
:1030C0000F4642F48071016020464FF0011100224A
:1030D0003346009500F032F950B120680068C00511
:1030E00044BF4FF400702064032002B0BDE8F087B5
:1030F00040F202082068C0F2010807F0FE070761ED
:103100002046414632462B4600F0FEF920B1012010
:1031100002B0BDE8F08700BF0020019020682A4679
:10312000416901918069314601900198204600F083
:103130009FFAB0B92068BAF1010F09D04FEA1921FE
:103140000161204631462A4600F092FA48B92068CB
:103150005FFA89F10161204631462A4600F088FA7B
:1031600060B1206C0428D2D12068016841F400715C
:103170000160012002B0BDE8F08700BF2068002296
:103180000168334641F48071016020464FF001111F
:10319000009500F0D3F800289FD147F0010C276874
:1031A0002046414632462B46C7F810C002B0BDE863
:1031B000F04700F0A9B900002DE9F04383B00446C0
:1031C00000680F4601680A9D0B9E41F48071994684
:1031D0009046016020464FF0011100222B460096D8
:1031E00000F0ACF850B120680068C00544BF4FF44F
:1031F00000702064032003B0BDE8F083206807F06E
:10320000FE0101610221C0F2010120462A46334637
:1032100000F07AF920B1012003B0BDE8F08300BFCF
:103220000020029020683246416902918069294657
:1032300002900298204600F01BFA58B1206C042836
:10324000E9D12068016841F400710160012003B0F8
:10325000BDE8F0832068B9F1010F0AD04FEA1821C8
:10326000016120462946324600F002FA0028E5D1E5
:1032700020685FFA88F10161002003B0BDE8F083A7
:1032800070B50368044653F8140F400711D40E4676
:10329000481C29D086BB00BF1868400527D4FDF71D
:1032A000B1FD236853F8140F400737D5186840075D
:1032B000F2D5002070BD00BF18684007F9D4186827
:1032C000400514D418684007F3D4186840050ED49C
:1032D00018684007EDD41868400508D418684007FE
:1032E0004FF0000048BF70BD18684005E4D56FF48A
:1032F00080601860042012E0154603E053F8140FB4
:103300004007D6D418684005F1D4FDF77BFD401B7B
:103310002368B042F2D958694007EFD42020002139
:103320002022216384F83D2084F83E10226C104353
:103330002064012084F83C1070BD00002DE9F041AC
:10334000054600681E46144601F47F0201338FB221
:1033500042D0DDF81880B2F5803F40F087804069A8
:103360003840C01BB0FA80F04009844240F0C88069
:103370004EB924E040693840C01BB0FA80F04009E3
:10338000844240F0BD80FDF73DFDA0EB08012868B8
:10339000B142EFD941693940C91BB1FA81F14909FC
:1033A0008C42E7D19BE000BF40693840C01BB0FAB7
:1033B00080F0400984424FF0000040F0A280FDF709
:1033C00021FD286841693940C91BB1FA81F14909D9
:1033D0008C42E9D183E000BFB2F5803F24D100BF29
:1033E00041693940C91BB1FA81F149098C4240F069
:1033F000878041693940C91BB1FA81F149098C4282
:1034000040F07E8041693940C91BB1FA81F1490918
:103410008C4275D141693940C91BB1FA81F1490922
:103420008C42DDD06CE000BF81693940C91BB1FA24
:1034300081F149098C4263D181693940C91BB1FAD4
:1034400081F149098C425BD181693940C91BB1FACC
:1034500081F149098C4253D181693940C91BB1FAC4
:1034600081F149098C42DFD04AE000BF80693840D1
:10347000C01BB0FA80F04009844241D146B923E034
:1034800080693840C01BB0FA80F04009844237D1CF
:10349000FDF7B8FCA0EB08012868B142F0D98169BA
:1034A0003940C91BB1FA81F149098C42E8D116E0D3
:1034B00080693840C01BB0FA80F0400984424FF068
:1034C000000018BFBDE8F081FDF79CFC2868816909
:1034D0003940C91BB1FA81F149098C42E8D1002079
:1034E0002021286385F83D1085F83E00296C41F0C5
:1034F0002001296485F83C000120BDE8F08100BF6F
:103500000020BDE8F0810000F0B581B004460068FD
:103510001D4643698FB203EA0701B94202D1002078
:1035200001B0F0BD4169164601323CD0490512D4C4
:103530007EB300BFFDF766FC411B2068B14203D992
:1035400041693940B9422BD141693940B942E6D08D
:1035500041694905EED5016841F4007101606FF4DD
:1035600080614161042000212022216384F83D20F4
:1035700084F83E10226C1043206484F83C10012033
:1035800001B0F0BD41693940B942C8D0416949052F
:10359000E1D4FDF737FC206841693940B942F1D0E8
:1035A0002020E0E741694905D5D441693940B94255
:1035B000B5D041694905CED441693940B942AED050
:1035C00041694905C7D441693940B942A7D0416929
:1035D0004905C0D441693940B942E3D19FE70000B1
:1035E00070B504460068154650F8143F5A063DD49D
:1035F0000E4629B926E000BF50F8141F490635D4FD
:103600000168C90621D4FDF7FDFB411B2068B142CA
:10361000F2D941694906EFD400202021206384F8C3
:103620003D1084F83E00206C40F0200018E000BF00
:10363000FDF7E8FB206850F8141F4906ECD5016837
:10364000490613D40168C906F2D56FF01001016074
:1036500000202021206384F83D1084F83E00206C77
:103660002064002084F83C00012070BD002070BD63
:1036700070B50368044653F8140F000611D40E46C3
:10368000481C29D086BB00BF1868400527D4FDF729
:10369000B9FB236853F8140F000637D518680006E5
:1036A000F2D5002070BD00BF18680006F9D4186874
:1036B000400514D418680006F3D4186840050ED4E9
:1036C00018680006EDD41868400508D4186800068C
:1036D0004FF0000048BF70BD18684005E4D56FF496
:1036E00080601860042012E0154603E053F8140FC0
:1036F0000006D6D418684005F1D4FDF783FB401BC3
:103700002368B042F2D958690006EFD42020002186
:103710002022216384F83D2084F83E10226C10435F
:103720002064012084F83C1070BD00002DE9F04FAA
:1037300085B040F2E8280C464700C2F200081D465A
:1037400016464FF4FA794FF0010A0DF1130B40467B
:10375000394622460123CDE900BACDF80890FDF79D
:1037600009FC9DF813000AFA06F141EA0002002D57
:1037700008BF20EA01028DF8132040463946224650
:103780000123CDE900BACDF80890FDF71FFD05B083
:10379000BDE8F08F2DE9F04784B00C46450040F2BB
:1037A000E8201E4617464FF4FA784FF001090DF154
:1037B0000F0AC2F20000294622460123CDE900A9E2
:1037C000CDF80880FDF7D6FB10B104B0BDE8F08756
:1037D0004FF0FF31B140BA1B0C98C94301329DF83C
:1037E0000F309140904023EA010108438DF80F000B
:1037F00040F2E820C2F20000294622460123CDE92A
:1038000000A9CDF80880FDF7E1FC04B0BDE8F08721
:10381000B0B582B00120009068206B210222032302
:1038200002240325FFF7B6FF68201B210422022390
:103830000095FFF7AFFF68201C21042202230094AB
:10384000FFF7A8FF68206B2106220023FFF76EFF19
:1038500068206A2105220023FFF768FF68203721CE
:103860000122002302B0BDE8B040FFF75FBF0000B7
:10387000FEE70000FEE700007047000040F2D800BD
:10388000C2F200000178002900F0908090ED043A27
:1038900090ED054A90ED065A30EE430A80ED180A85
:1038A00030EEC40A80ED190A31EE450A80ED1A0A9D
:1038B00090ED0D0A9FED6F3A31EEC00A80ED1B0AC4
:1038C00090ED0E0A9FED6E4A32EE400A80ED1C0A22
:1038D00090ED0F0A32EEC00A80ED1D0A90ED181A25
:1038E00090ED152A9FED640A22EE032A21EE001ABC
:1038F00031EE021A80ED151A90ED191A90ED162A84
:1039000021EE001A22EE032A31EE021A80ED161A79
:1039100090ED1A1A90ED172A21EE001A22EE032AD2
:1039200031EE021A80ED171A90ED1B1A90ED102A55
:103930009FED523A21EE041A22EE032A31EE021ACA
:1039400080ED101A90ED1C1A90ED112A21EE041A48
:1039500022EE032A31EE021A80ED111A90ED1D1AA3
:1039600090ED122A21EE041A22EE032A31EE021AF9
:1039700080ED121A90ED151AB0EEC11AB4EE401A8D
:10398000F1EE10FAACBF90ED151A9FED3E1A80EDE6
:10399000021A90ED161AB0EEC11AB4EE401AF1EE0A
:1039A00010FAACBF816D0021C16070474188C72902
:1039B0000AD8013141800021C0E9071141628162CA
:1039C000C162016381804CE090ED073A90ED084AB6
:1039D00090ED095A90ED0A6A30EE030A30EE843A0F
:1039E00031EE051A31EE864A80ED070A80ED083A7D
:1039F00080ED091A80ED0A4A90ED0B4A32EE042A56
:103A000080ED0B2A90ED0C2A32EE822A80ED0C2AF2
:103A1000818801318AB2B2F5C87F818021D39FEDC0
:103A20001A2A012180EE020A83EE023A81EE021A7E
:103A300080ED040A80ED053A80ED061A90ED0A0A41
:103A400080EE020A80ED0D0A90ED0B0A80EE020A6C
:103A500080ED0E0A90ED0C0A80EE020A80ED0F0A4E
:103A60000170002141658165C16501644164816423
:103A7000704700BF6666663FCDCCCC3DCDCC4C3F99
:103A8000CDCC4C3E000000000000C843F0B589B02A
:103A900040F2D80740F2D015C2F20007C2F200058A
:103AA0000DF11F06BC1D05F1100005F1160103AA5A
:103AB00008ABCDE9004600F0CBFDF888C0056ED517
:103AC000B5F916009FED5A4A00EE100AB5F910003C
:103AD0009FED561A02EE100AB5F91200B8EEC22A8E
:103AE000C2EE041A02EE100AB5F91400B8EEC22AAA
:103AF00005EE100AB8EEC55A82EE042AC5EE042A75
:103B0000B8EEC00A95ED073AB5F9180020EE010AA3
:103B100030EE430A03EE100A95ED084AB8EEC33AB8
:103B2000B5F91A0023EE013A73EE440A03EE100AC7
:103B300095ED095AB8EEC33A23EE011A31EE451A53
:103B4000FFF79CFE3878012826D17978481C7870D8
:103B500041B3C0B2022822D300267E70FDF752F98D
:103B6000396D386595ED000A97ED121A30EE010AAD
:103B7000B6EE001A20EE010A9FED2E1AB0EEC02A12
:103B8000B4EE412AF1EE10FA85ED010A0EDAFE6478
:103B9000B86FA86009B0F0BDFDF734F9386509B019
:103BA000F0BD00BFB86C286009B0F0BD401A01EE4E
:103BB000100A9FED212AB8EE411A81EE021A9FEDFC
:103BC0001F2A9FED203A9FED204AB4EE421AF1EEF3
:103BD00010FAC8BF0126F0079FED192AB5EE401A6A
:103BE00018BFB0EE421AF1EE10FAD8BFB0EE421A8A
:103BF00095ED032A22EE032A20EE043A33EE022A40
:103C00009FED123A85ED032A20EE030A87ED130A91
:103C100097ED130A95ED022A20EE010A30EE020A12
:103C200085ED020AA868B86709B0F0BD00008039C8
:103C3000333383419A99993E00007A44CDCC4C3D70
:103C40000AD7233CCDCC4C3FCDCC4C3E93184C40B6
:103C500070470000FDF7A2BB70B592B006AC2046DD
:103C60003021FCF7F5FB002543F640000595CDE932
:103C70000355CDE901550095C4F202000168022602
:103C800041F080510160006800F080500090009881
:103C900047F200000095C4F20000016841F4804141
:103CA00001600068A82100F4804000900098012085
:103CB00006904FF4803007904FF480000D90042060
:103CC0000E90119020460C96CDE90F16FDF730FDB1
:103CD00010B172B6FEE700BF0F20CDE901064FF428
:103CE000A05004904FF48050059001A80521039541
:103CF000FDF70CFC10B172B6FEE700BF12B070BD4C
:103D00004EF68850CEF20000016841F47001016067
:103D10007047000040F23C30C2F20000FEF726BAC5
:103D200040F28430C2F20000FEF720BA40F21440A4
:103D3000C2F20000FEF71ABAB0B540F6FF3E0568C1
:103D4000C4F2000E40F2004C7045C4F2010C25DCB8
:103D5000B0F1804F2FD040F20043C4F200039842EC
:103D600029D040F60003C4F20003984223D041F664
:103D7000FF73C4F20003984228DC70453ADCB0F1CE
:103D8000804F5BD040F20043C4F20003984255D00C
:103D900040F60003C4F200034EE000BF40F60043CB
:103DA000C4F20003984206D0604504D00023C4F258
:103DB00001039842DBD14B6825F0700243EA02050B
:103DC00041F6FF73C4F200039842D6DD43F6FF7359
:103DD000C4F2010398421FDC42F20003C4F2000364
:103DE00098422BD00023C4F20103984226D06045AC
:103DF00024D028E040F60043C4F2000398421DD0CE
:103E000041F60003C4F20003984217D041F6004384
:103E1000C4F2000310E000BF44F20003C4F2010347
:103E200098420BD044F60003C4F20103984205D037
:103E300044F20043C4F20103984204D1CB6825F454
:103E4000407243EA02050A688C684B69C46240F418
:103E500080648262644504BF09690163026825F0D9
:103E6000800142F0040219430260012242610160B4
:103E7000B0BD0000806B0021C185FEF7ADBD000024
:103E8000806B01684A6990F84130212B2DD112F0E6
:103E900080022AD00021C184016851E8031F026812
:103EA00021F0C00142E80313DBB1016851E8031FB0
:103EB000026821F0C00142E8031393B1016851E8A0
:103EC000031F026821F0C00142E803134BB10168EF
:103ED00051E8031F026821F0C00142E80313002BE0
:103EE000DAD1202180F841100168496990F8422018
:103EF000222A40F07D8011F0400179D00021C18557
:103F0000016851E8031F026821F4907142E803132D
:103F1000BBB3016851E8031F026821F4907142E8C5
:103F2000031373B3016851E8031F026821F4907111
:103F300042E803132BB3016851E8031F026821F420
:103F4000907142E80313002BDAD11AE0016851E8BE
:103F5000051F026821F0010142E80513DBB1016889
:103F600051E8051F026821F0010142E8051393B1F1
:103F7000016851E8051F026821F0010142E80513BC
:103F80004BB1016851E8051F026821F0010142E8C8
:103F90000513002BDAD1016B012924D1016851E806
:103FA000031F026821F0100142E80313DBB101682E
:103FB00051E8031F026821F0100142E8031393B196
:103FC000016851E8031F026821F0100142E8031361
:103FD0004BB1016851E8031F026821F0100142E86B
:103FE0000313002BDAD1202180F842100021016355
:103FF000416C41F010014164FEF7EEBC0168806B3A
:104000000968C90500F19F800021C185016851E858
:10401000031F026821F4807142E80313E3B10168D1
:1040200051E8031F026821F4807142E803139BB139
:10403000016851E8031F026821F4807142E803130C
:1040400053B1016851E8031F026821F4807142E80E
:104050000313002BDAD100BF016851E8051F026885
:1040600021F0010142E80513BBB3016851E8051FC7
:10407000026821F0010142E8051373B3016851E8B9
:10408000051F026821F0010142E805132BB3016806
:1040900051E8051F026821F0010142E80513002BD9
:1040A000DAD11AE0016851E8051F026821F04001E9
:1040B00042E80513DBB1016851E8051F026821F0F1
:1040C000400142E8051393B1016851E8051F0268F9
:1040D00021F0400142E805134BB1016851E8051F8A
:1040E000026821F0400142E80513002BDAD12021BB
:1040F00080F84210016B012925D100BF016851E809
:10410000031F026821F0100142E80313DBB10168CC
:1041100051E8031F026821F0100142E8031393B134
:10412000016851E8031F026821F0100142E80313FF
:104130004BB1016851E8031F026821F0100142E809
:104140000313002BDAD100214163016B012918BF51
:10415000FEF7A0BF818DFEF707BC0000806B012138
:104160004163016B012918BFFEF796BF818D490895
:10417000FEF7FABB81B090F84210222921D1836862
:104180000246B3F5805F09D152F8281F52F8183C57
:10419000002B63D003685B680AE000BF52F8281F59
:1041A00013B90369002BF5D003685B6803F07F0344
:1041B0000B70116801311160C18D01390A04C1858C
:1041C00002D001B0704700BF0168CA6822F0200227
:1041D000CA60CA6822F48072CA604A6922F0010289
:1041E0004A61202180F8421000214163026B012ABC
:1041F0003CD10163016851E8031F026821F01001FE
:1042000042E80313DBB1016851E8031F026821F0A3
:10421000100142E8031393B1016851E8031F0268DB
:1042200021F0100142E803134BB1016851E8031F6C
:10423000026821F0100142E80313002BDAD1016873
:104240000A68D20606D5002200920A6800924968E0
:1042500000910099818D01B0FEF786BB026852681B
:104260006FF35F2221F8022B8162A5E701B0FEF710
:1042700011BF0000B0B50446006804F108030ECB7E
:104280000569194325F440552A4302616269E369CF
:104290001143C268194349F20C639A431143C16048
:1042A0004169A26921F4407141F20043114340F495
:1042B0008062C4F201039A42416103D1FDF7ECF937
:1042C00002E000BFFDF7D4F9E1694FF69C75636821
:1042D0001922C0F6FF75B1F5004FA0FB02011FD1F6
:1042E0005A00DB0FFBF7D6FF48F21F51C5F2EB1166
:1042F000A0FB01235A0905F1805302FB030032237E
:1043000003EBC000A0FB01014FF4F87000EA1110AC
:1043100000EB0210C1F34211084421688860B0BD6F
:104320009A009B0FFBF7B6FF48F21F51C5F2EB1145
:10433000A0FB01235A0902FB0500322303EB001006
:10434000A0FB0101F02000EA511000EB0210C1F3C4
:104350004311084421688860B0BD000040F2A440C9
:10436000C2F20000FEF73ABBFEE700004EF60C502A
:10437000BFF34F8FCEF200000168042201F4E06128
:10438000C0F2FA5211430160BFF34F8F00BF00BF6C
:1043900000BF00BFFAE70000F0B587B004464CF656
:1043A0000220C0F6E3100DF10605CDF806006820E6
:1043B00004212A4602F0FEFA14F040014FF0A30057
:1043C0006FF03F018DF8060008BF6FF05C016FF0E1
:1043D00037026FF03D0308BF6FF05C0208BF6FF05B
:1043E0005C038DF8071014F4C0716FF03B018DF879
:1043F00008208DF8093008BF6FF05C016FF03302C0
:104400006FF0390308BF6FF05C0208BF6FF05C0308
:104410008DF80A104AF2A3318DF80B20ADF80D107B
:104420008DF80F0040F6A7200A212A468DF80C309F
:1044300002F0C0FA2020A60708BF6FF027008DF811
:10444000060040F6B62001212A4602F0B3FAA00683
:104450000CD4C720069048F6B000CCF2C3500590AB
:104460004AF6B820CAF6AA200BE000BF5D200690ED
:1044700049F6B400C3F20D5005904AF6B820C8F6CC
:10448000B350049004AA4FF49760092102F092FA05
:1044900014F4C07F25D06FF04D016FF0740214F456
:1044A000807008BF6FF04F0108BF6FF07F026FF0A0
:1044B00049036FF0640508BF6FF04B03002808BF85
:1044C0006FF06F058DF806108DF807200DF10602CC
:1044D00040F6A22004218DF808308DF8095002F032
:1044E00069FAE00708D1D8208DF806000DF1060220
:1044F0004FF40B60012150E0F8208DF806000DF11B
:1045000006024FF40B60012102F054FA0720FA2151
:1045100000F094FA3F208DF8100004AA4FF4A47024
:10452000012102F047FA00208DF8100004AA40F2A1
:104530004F10012102F03EFA4FF4A050ADF81000E8
:1045400004AA4FF4EF70022102F034FA4FF4C8408D
:10455000ADF8100004AA4FF4ED70022102F02AFA1F
:1045600048F60060C9F2F900049004AA4FF4AE7056
:10457000042102F01FFA4FF40060ADF8100004AA05
:104580004FF4AD70022102F015FA4FF40070ADF84F
:10459000100004AA4FF4AC70022102F00BFA6FF085
:1045A0002600002E58BF6FF027008DF806000DF191
:1045B000060240F23D70012102F0FCF9600752BF93
:1045C0004FF08B304CF2C020CCF2C460049004AAAF
:1045D00040F69820042102F0EDF901F0AFFDE0066D
:1045E00052BF4FF0A33042F62000C3F630000490D3
:1045F00004AA40F69E20042102F0DCF901F09EFDA1
:1046000040F2C80744F00800C2F200076506B8800F
:1046100001F094FD062000EAE57114F4C07F18BF94
:10462000063114F0140F18BF1031002E18BF0431DA
:104630000020397007B0F0BD46F68C21C0F60001AD
:1046400040F6F6304FF48062C82301F063BB0000EF
:104650002DE9F04F89B040F2C8091446DDE912B2E5
:10466000C2F200090F468046002199F800000DF1C2
:10467000040AABF8001051461E4601F0FFFC28B1B9
:104680004FF0FF3009B0BDE8F08F00BFB9F804C0AB
:104690001CF0140F4ED09DF80520B6469DF804106E
:1046A000BDF8066012049DF8095042EA016132BA71
:1046B0009DF8083041EA1242BDF80A6022602A04DF
:1046C00042EA036233BA42EA134363609DF80D3055
:1046D0009DF80C60BDF80E501B0443EA06632EBA29
:1046E00043EA1646A6609DF811609DF8105011FB34
:1046F00031F1360412FB3211BDF8120046EA0566AC
:1047000013FB331116FB361100BA01F1714146EA71
:104710001040B1F1007FE0606AD8BBF800001021C2
:1047200040F480707646ABF800005FEA4C6005D438
:1047300021E000BF00215FEA4C601CD50AEB0100BC
:104740001AF80120437834468678C57890F804E05A
:10475000407943EA02223A8045EA062240EA0E20E6
:104760007A80B880BBF80000264641F0060140F090
:104770000800ABF800001CF4C07F18D03AF8010024
:104780000AEB010200BA5388000CA8F8000018BA1E
:104790009288000CA8F8020010BA000CA8F80400D7
:1047A000BBF80000063140F07000ABF800005FEA93
:1047B0008C7016D00AEB01056878EC78C10709D037
:1047C000D9F8082032B104F00700411CC4F3C2003C
:1047D00090476878000704D5D9F80C1009B1A009F2
:1047E0008847FCF70FFB3060002009B0BDE8F08F70
:1047F00001F0A4FC0020ABF800004FF0FF3009B03E
:10480000BDE8F08F10B586B04AF6BB71CDF6DF710A
:1048100005914FF2AA11CDF6DF7104914FF2FE21FE
:10482000CCF2AB41C828039118D80446C0B2C821C5
:10483000B1FBF0F0002101388DF804108DF805006F
:1048400001AA40F21620022102F0B4F830B903AAFE
:1048500040F6C1200C2102F0ADF818B14FF0FF3046
:1048600006B010BD40F28420C2F200000480002097
:1048700006B010BDF0B581B040F28021C2F2000157
:104880000E880C2306F003014EF2093450F8211073
:1048900003EA5603C0F2CA24720748BF4942C75808
:1048A000C6F3811381FB041250F82350F0054FEA40
:1048B00091704FEA925148BF6D428DF80010910BF4
:1048C00040EA82008DF8011091098DF802108DF8F0
:1048D00003006A464FF47470042102F06BF8E0B9EB
:1048E000B00648BF7F42A7FB0401FA1702FB041180
:1048F000800F8A0D40EA81008DF800208A0B89091B
:104900008DF801208DF802108DF803006A464FF4EF
:104910007570042102F04EF820B14FF0FF3001B065
:10492000F0BD00BF85FB0401800F8A0D40EA8100C5
:104930008DF800208A0B89098DF801208DF802106E
:104940008DF803006A464FF47670042102F032F8C5
:1049500001B0F0BDB0B582B0054646F65121C0F6B3
:104960000001C5F3C10300F00300CC5C0A5C8DF8C4
:10497000054046F64E248DF80420C5F38112C0F69A
:104980000004895C205C8DF806108DF80000E05C66
:10499000A15C8DF801008DF8021001AA40F22640BA
:1049A000032102F007F850BB6A4640F22A40032177
:1049B00002F000F818BB45F23660C0F276000190B4
:1049C00044F22660C0F26600690700901CD4A80675
:1049D00022D4E80505D577208DF8060067208DF8EC
:1049E000020001AA4FF48860032101F0E3FF30B90F
:1049F0006A4640F23140032101F0DCFFB0B14FF0D4
:104A0000FF3002B0B0BD00BF37208DF80400272072
:104A10008DF80000A806DCD557208DF8050047204A
:104A20008DF80100E805D6D4DBE700BF40F2802016
:104A3000C2F200000580002002B0B0BDB0B582B067
:104A40000446B1F5C86F4FF0FF3045D814F00702A7
:104A500042D00DF103000D4601F066F89DF8030009
:104A600002384FEA7000072865D8C1B28B2222FABB
:104A700001F1C9075FD000EE105A9FED311AB8EE70
:104A8000400A80EE010A2FA101EB800191ED001A8E
:104A900034A101EB800090ED002A20EE011A20EEF7
:104AA000020ABDEEC00A10EE100ABDEEC10A10EEF9
:104AB000101A0A0A8DF804208DF80510010A01AABF
:104AC000951C8DF80610E1078DF8070006D1A007A8
:104AD00012D4600720D4002002B0B0BD4FF4EA70B9
:104AE000022101F067FF30BB4FF4927002212A4689
:104AF00001F060FFF8B9EAE701AA4FF4EC70022177
:104B000001F058FFB8B94FF4947002212A4601F021
:104B100051FF80B9DDE700BF01AA4FF4EE7002211A
:104B200001F048FF38B94FF4967002212A4601F08F
:104B300041FF0028CFD04FF0FF3002B0B0BD00BF22
:104B40000000484300008046000000460000804608
:104B5000000080450000804600008046000080463E
:104B600000000045000040460000C04500004046EF
:104B7000000040450000404600004046000040461E
:104B80000000C0442DE9F04F85B040F23C07C2F26E
:104B900000070C4605460120D7E90013ADF80800D0
:104BA0001878497D164602AB022200F097F90028DA
:104BB00040F0C280C820FCF725F80020D7E9001299
:104BC0008DF808001078497C02AB012200F086F9CC
:104BD000002840F0B180D7E9001002AB0078497995
:104BE000012200F07BF9002840F0A680D7E90010F0
:104BF00002AB0078497D012200F070F9002840F0F6
:104C00009B80D7E9001002AB0078897E012200F07A
:104C100065F9002840F09080D7E9001002AB0078D9
:104C20000979012200F05AF9002840F085800C2013
:104C3000D7E900128DF808001078097902AB01223B
:104C400000F04CF9002877D10F20FBF7DBFFB86AA2
:104C5000D7E90012407A89788DF80800107802AB05
:104C6000012200F03BF9002866D1B86AD7E90012AA
:104C7000007A49788DF80800107802AB012200F024
:104C80002DF9002858D1B86AD7E90012807A002E91
:104C900018BF40F0E0008DF808001078897902AB69
:104CA000012200F01BF9002846D12EB1B86AC07A63
:104CB00060F01F0001E000BF1820D7E900128DF856
:104CC00008001078C97902AB012200F007F998BBFF
:104CD00016B1C820FBF796FF4020D7E900128DF8E7
:104CE00008001078097902AB012200F0F7F818BB30
:104CF0007820D7E900128DF808001078497902ABC6
:104D0000012200F0EBF8B8B93220FBF77BFF00205E
:104D1000D7E900128DF808001078497902AB01221A
:104D200000F0DCF840B9D7E9001002AB0078097B4D
:104D3000022200F0BFF828B14FF0FF3005B0BDE807
:104D4000F08F00BFBDF808004AF6AB2100BA000C96
:104D50004843C0F3C7420021002AC5E90011A960F9
:104D6000C4E900110192A16044D0C00C00260DF1ED
:104D700008095FFA80FBD7E900100C220078497B14
:104D80004B4600F097F80028D6D1BDF80A10BDF8C0
:104D90000800BDF80C2091FA81FEA16890FA80FC11
:104DA00012BAD4E9003001EB224103EB2C4300EBB3
:104DB0002E40A160BDF81010C4E90030BDF81220EB
:104DC000BDF80E0091FA81FCD5E9003192FA82FE1D
:104DD000AA68013600BA01EB2C48F1B203EB20407F
:104DE00002EB2E4A5945C5E90008C5F808A0C2D310
:104DF00002E000BF95E80105C117090441EA10412E
:104E0000000483220023FBF7BDFA019F00233A46EA
:104E1000FBF7B8FA28604FEAE870000440EA18414E
:104E20004FEA084083220023FBF7ACFA3A460023FE
:104E3000FBF7A8FA68604FEAEA70000440EA1A41FA
:104E40004FEA0A4083220023FBF79CFA3A460023EC
:104E5000FBF798FAA860D4E90006A568C1174901D4
:104E600041EAD06140013A460023FBF78BFA20600B
:104E7000F017400140EAD66170013A460023FBF783
:104E800081FA6060E817400140EAD56168013A465E
:104E90000023FBF777FA01464FF480320029C4BFA4
:104EA0000022CFF6FF7211440020A16005B0BDE8DA
:104EB000F08F000080B584B094460A464FF4FA7132
:104EC0000291410040F2E8200093C2F20000012369
:104ED000CDF804C0FCF74EF804B080BD80B584B0B6
:104EE00094460A464FF4FA710291410040F2E820DC
:104EF0000093C2F200000123CDF804C0FCF766F96C
:104F000004B080BD96B041F2140BC4F2020BFCF762
:104F100053FAFEF7A1FE002743F630040797CDE9C8
:104F20000577CDE903770C97C4F202042068ABF152
:104F3000140540F0100020602068062100F01000E9
:104F40000C900C980C972068002240F080002060A4
:104F50002068062600F080000C900C980C972068C2
:104F600040F001002060206800F001000C900C98D7
:104F70000C97206840F008002060206800F00800CE
:104F80000C900C980C97206840F00400206020687A
:104F900000F004000C900C980C97206840F0020080
:104FA0002060206800F002000C900C982846FBF767
:104FB00023FF40F20008C4F2020840460421002208
:104FC0004FF00409FBF718FF0DF10C0A03960126B8
:104FD00028465146CDE904670697FBF73DFE40465B
:104FE0005146CDE90396CDE90577FBF735FE4FF441
:104FF0008810CDE90407284651460396FBF72CFE9E
:10500000062000210022FCF745FA0620FCF730FAC2
:1050100003972068002140F480002060206800226F
:1050200000F48000039003983A20FCF733FA3A200A
:10503000FCF71EFA40F2A440A8F57041C2F200004D
:105040000C234FF4E13280E88600C0E90377C0E921
:105050000537C761FDF78CFF10B172B6FEE700BFE0
:1050600045F2004440F2E82041F68021C4F20004F9
:10507000C2F20000C0F206014FF48042C0E90041D4
:10508000C0E90277C0E90427C0E906770762FBF7A9
:10509000BFFE18B172B600BFFEE700BF40F23C3061
:1050A0000021C2F200004FF08042C0E9002103223B
:1050B0004FF0FF33CDE903210122CDE90C11C0E906
:1050C000021301618161CDE90521CDE90711CDE927
:1050D00009210B9103A9FCF717FF18B172B600BFA5
:1050E000FEE700BF40F23C30C2F200000CA9FCF722
:1050F00035FD18B172B600BFFEE700BF40F2843044
:105100000021C2F200004FF6FF7240F20046C0E9F3
:1051100002120322C4F20006CDE903210122CDE9E7
:105120000C11C0E9006101618161CDE90521CDE982
:105130000711CDE909210B9103A9FCF7E5FE18B190
:1051400072B600BFFEE700BF40F28430C2F200003A
:105150000CA9FCF703FD18B172B600BFFEE700BF53
:1051600040F2CC30002106F58062C2F2000041F22C
:105170006703CDE90C11CDE90811CDE90611C0E9AD
:105180000021C0E9021301618161FDF7F9F918B14D
:1051900072B600BFFEE700BF40F2CC30C2F20000A2
:1051A0000CA9FCF7DBFC18B172B600BFFEE700BF2C
:1051B000602003900020CDE90400079040F2CC303D
:1051C000C2F2000003A90822FDF7CAF810B172B6B6
:1051D000FEE700BF40F2CC30C2F2000003A90C226F
:1051E000FDF7BEF810B172B6FEE700BF40F2CC305A
:1051F000C2F20000FDF762F840F25C40002104F5C5
:105200003042C2F2000042F2CF03CDE914110991FD
:10521000C0E90021C0E90213C0E904118161FDF772
:10522000AFF908B172B6FEE740F25C40C2F200008E
:1052300014A9FCF793FC08B172B6FEE760200C904D
:105240000020CDE90D00CDE90F00CDE9110040F2BD
:105250005C40C2F200000CA90822FDF781F808B1F9
:1052600072B6FEE740F25C40C2F200000CA90C22CC
:10527000FDF776F810B172B6FEE700BF4FF40050AC
:10528000089040F25C400024C2F2000003A9079499
:10529000CDE90544CDE903440A94FCF739FC08B193
:1052A00072B6FEE740F25C4040F63C05C2F20000F8
:1052B000C4F20005FDF702F840F2144005F57171E3
:1052C000C2F2000063230694CDE90444CDE90C4406
:1052D00042F2CF0280E81600C0E903348461FCF793
:1052E0009BFC08B172B6FEE74FF48050039040F289
:1052F0001440C2F2000003A9FCF736FD10B172B6EB
:10530000FEE700BF40F21440C2F200000CA9FCF717
:1053100025FC08B172B6FEE71420C4F20200016851
:1053200040F23C4521F004010160DBF80000C4F2CA
:10533000010520F00200CBF80000FEF769FAFBF748
:10534000F3F840F2F814C2F2000440F2A44004F171
:105350003401C2F200000A220A27FDF70DFA40F2DA
:105360008820C2F20000006840F2CC380168C2F226
:10537000000821F00801016040460821FDF762F9AC
:1053800040460C21FDF75EF940F25C48C2F200088D
:1053900040460821FDF756F940460C21FDF752F929
:1053A00004F140004FF080410290FBF793F904F1C3
:1053B0005C0031460190FBF78DF940F23C30C2F2BF
:1053C00000003C21FCF75CFE40F28430C2F2000099
:1053D0003C21FCF755FE40F21440C2F20000FCF7FD
:1053E0006DFC40F20006C2F2000696ED020A96ED50
:1053F000031A96ED042A96ED053A40F25418C2F2CB
:10540000000896ED064A96ED075A81EE000A83EEF3
:10541000021A98ED132A98ED153A82EE042A83EECB
:10542000053A40F2D80A9FEDC09A9FEDC0DA9FED91
:10543000C0EA9FEDC0FADFEDC08ADFEDC09ADFED74
:10544000C0DADFEDC0FA9FEDC0BA9FEDC0CA4FF0E1
:105450000009C2F2000AB7EE008AF3EE04AAF1EEE8
:1054600004BAF9EE04CAF6EE00EABBEE04AA88ED2F
:10547000040A88ED091A88ED142A88ED173A0AE023
:1054800040F63301884228BF084640F63C01C4F28A
:10549000000108604F6098F80000012803D188F8E7
:1054A0000090FEF7F3FA9AF8000001283DD198F831
:1054B0000410D1BB012088F80400DBF8000040F0A4
:1054C0000400CBF800003220FBF79CFBDBF8000067
:1054D00020F00400CBF800003220FBF793FBDBF850
:1054E000000040F00400CBF800003220FBF78AFBFC
:1054F000DBF8000020F00400CBF800003220FBF7BE
:1055000081FBDBF8000040F00400CBF80000322003
:10551000FBF778FBDBF8000020F00400CBF800007C
:105520003220FBF76FFB9AF80000002864D098F84F
:1055300001000128AFD188F801900298FBF7D4F858
:105540000198FBF7D1F896ED003A94ED140A94ED2A
:10555000041A94ED152A38EE435A94ED056A84ED49
:10556000020A25EE011A23EE000A84ED032A30EE2A
:10557000011A25EE060A23EE022A32EE000A96ED03
:10558000014A84ED050A94ED1B0A94ED1C2A94ED62
:10559000087AD4ED090A84ED060A84ED072A38EE6C
:1055A000443A24EE000A24EE024A98ED032A23EE40
:1055B000075A23EE203A34EE034AB0EEC23AB4EE74
:1055C000493A30EE050AF1EE10FA84ED041A84ED42
:1055D000080A84ED094A6FDA9FEDDC5A9FEDDC3A48
:1055E000C4F82890C8F86890B0EE4D2AB0EE4D4A45
:1055F000B0EE047AC4E000BF40F63C00C4F2000004
:10560000C8F82090C8F83490A8F80690A8F8089038
:105610002F60C5F80490C0F80090476098F801002A
:1056200001287FF438AF88F801900298FBF75CF806
:105630000198FBF759F896ED002A94ED140A94EDC1
:10564000045A38EE424A94ED151A84ED020A94ED9C
:10565000056A24EE055A22EE000A30EE050A84EDB2
:10566000031A84ED040A24EE060A22EE011A96EDCE
:10567000013A31EE000A94ED087A84ED050A94EDC2
:105680001B0A38EE432AD4ED090A94ED1C1A84ED66
:10569000060A22EE074A23EE000A30EE040A84EDE1
:1056A000071A84ED080A22EE200A23EE011A31EED1
:1056B000000A84ED090AEEE694ED0B4AB0EEC44A06
:1056C000B4EE494AF1EE10FA06DAB4EE493AF1EED8
:1056D00010FA01DB642007E0206B9FEDE45A9FED98
:1056E000E23AB1EE004A48B19FEDE15A0138B0EE1E
:1056F0006B4AB5EE003AC8F86890206394ED0A6AE8
:1057000084ED0B2AB4EE426AF1EE10FA20DA9FED36
:10571000DA7A36EE076AB4EE426AF1EE10FA84EDF8
:105720000A6A25DC28E000BF0AD7233C00000000FD
:10573000000034430000B4C3000034C30000B4438D
:105740009886A13ECDCC4C3D0038834500300345C2
:10575000B4EE426AF1EE10FA0EDD9FEDC67A36EE37
:10576000076AB4EE426AF1EE10FA84ED0A6A03DACF
:1057700084ED0A2A02E000BFB0EE462AB0EE6E7A4F
:10578000C4EE070A40F2D810C2F2000098ED1D6A7C
:10579000D0ED001A86ED077A36EE616AB4EE4E6AF5
:1057A000F1EE10FA86ED083A88ED154A88ED165AA2
:1057B000C8ED170A1BDD36EE0F6AB4EE4E6AF1EE45
:1057C00010FA14DD36EE0F6AB4EE4E6AF1EE10FAFE
:1057D0000DDD36EE0F6AB4EE4E6AF1EE10FA06DD1C
:1057E00036EE0F6AB4EE4E6AF1EE10FAE3DCB4EE78
:1057F000686AF1EE10FA88ED186A1DDA36EE296A49
:10580000B4EE686AF1EE10FA14DA36EE296AB4EEF4
:10581000686AF1EE10FA0DDA36EE296AB4EE686ABB
:10582000F1EE10FA06DA36EE296AB4EE686AF1EEA5
:1058300010FAE3DB88ED186AD8ED191A24EE064A4F
:1058400076EE611A25EE215A85EE095AD8ED1B1A1B
:1058500060EEA10A34EE204AD8ED1A0A24EE094A75
:1058600034EE204AD8ED1C0A78EE431A61EEA00A05
:1058700023EE053A33EE205A27EE063A33EE043A89
:1058800033EE053AB4EE6A3AF1EE10FA88ED1C5A9E
:1058900004DD3AEEC35AB0EE6A3A0AE0B4EE4A3A90
:1058A000F1EE10FABABF3AEE435AB0EE4A3AB0EE11
:1058B0004D5AB4EE6B3AF1EE10FAC8BFB0EE6B3A47
:1058C000B4EE6C3AF1EE10FAB8BFB0EE6C3A23EEDB
:1058D0002D3A23EE2E3A32EE437A33EE022A87EE49
:1058E0002F3A82EE2F2A88ED196A88ED1A4A88ED40
:1058F0001B5A88ED083A88ED0D2A98ED082A98ED94
:10590000043A98ED054A32EE411A23EE042A96ED48
:10591000023A96ED034A23EE013A24EE011A31EEE3
:10592000021A98ED072A21EE091A31EE021A33EE17
:10593000012AB4EE4B2AF1EE10FA0BDD41F26700BA
:10594000A8F806003BEE422A1AE000BF0AD7A33DA2
:10595000CDCC4C3E9FED493AB4EE432AF1EE10FA1D
:1059600006DA4EF69970A8F8060033EE422A07E0F0
:10597000BDEEC22A12EE100AB0EE4D2AA8F80600BB
:1059800088ED052A88ED062A88ED071A98ED091A90
:1059900098ED0A2A98ED0C3A98ED0D4A96ED055AC5
:1059A00034EE400A96ED044A21EE021A24EE004A33
:1059B00025EE000A30EE010A20EE090A30EE030A55
:1059C00034EE001AB4EE4C1AF1EE10FA06DD40F691
:1059D0003300A8F808003CEE411A15E09FED282A94
:1059E000B4EE421AF1EE10FA06DA4FF2CD70A8F8D2
:1059F000080032EE411A07E0BDEEC11A11EE100A9E
:105A0000B0EE4D1AA8F8080088ED0A1A88ED0B1AB6
:105A100088ED0C0AB8F90610B8F90800002907D477
:105A200041F26702914228BF11462F6009E000BF92
:105A3000494209B241F267029142A8BF114629606A
:105A40000A21002869607FF51BAD404200B240F694
:105A500033018842A8BF084640F63C01C4F2000169
:105A60000F60486017E500BFCDCC4C3EF4FD543CC0
:105A70004260E53C295C8FBD295C8F3D003883C5C1
:105A8000003003C5F0B581B040F23C04C2F200041E
:105A900094F8241011B1002001B0F0BDA27A5AB3DD
:105AA00000F0FE063240257C901B217D18BF4FF090
:105AB000FF30002E227408BF002921D0617C99B9E3
:105AC0000121D4E900328DF802101278597C0DF1D1
:105AD0000203074610460122FFF700FA0146384646
